:020000040000FA
:020000002C28AA
:08000800F000030E8301F1007A
:100010000A08F2008A010408F3008B1C13288B10D5
:100020000B128B10232883160C1E232883124108E1
:10003000840000089900C10AA03042074106031D50
:10004000232883160C127308840072088A00710E2C
:100050008300F00E700E0900831203138316023022
:100060009F00DF308600F83087008312073087005A
:10007000860180309F0083161812181518139816E1
:100080004D30990083129817F8010B160B178B1738
:100090000230B3230B1A5D2878150130A20002301C
:1000A000A1002830A000A00B53280000A10B53286A
:1000B0000000A20B532800000B16781874280B1EA2
:1000C0007C220708013A87000830A200A230A10074
:1000D0001C30A000A00B6A280000A10B6A280000B9
:1000E000A20B6A2800005D28073087007A290030BB
:1000F000AA000830AC00B430A9000830AB00A7015A
:10010000AE01B001B201B401C201A030C10084004F
:10011000F81669290B1E7C222708A800A701F811F0
:100120007812F81278130B1E7C220230A20087305E
:10013000A1009C30A000A00B9B280000A10B9B28D5
:100140000000A20B9B28000086169F151F1252224A
:100150008612AD002D082E020318B028FF3A013E8A
:100160003B02031C781786169F151F165222861213
:10017000AF002F0830020318BF28FF3A013E3B02B0
:10018000031C781786169F111F1252228612B10087
:10019000310832020318CE28FF3A013E3B02031C0D
:1001A000781786169F111F1652228612B300330845
:1001B00034020318DD28FF3A013E3B02031C781786
:1001C000781F93282D08AE002D0835020318EA2861
:1001D000FF3A013EAD002F08B0002F08350203188A
:1001E000F328FF3A013EAF003108B2003108350272
:1001F0000318FC28FF3A013EB1003308B40033086D
:10020000350203180529FF3A013EB3002F082D02DD
:10021000031C271633083102031CA716271E1529B5
:100220002F08AD062D06AF00AD06A71E1C2933080A
:10023000B1063106B300B1062D083102031C242992
:100240002D08D323310727293108D3232D07A600F2
:10025000DE23A70427080F390319F815B60028086C
:100260000F39031978163606031DF8164922C20104
:10027000A030C1008400F81969293108A600DE23E6
:10028000FF39031D46292717A71251292D08A6005B
:10029000DE23FF39031D512927172712A71A271616
:1002A000A716781A5B292708F039B6002808F03914
:1002B000360603196929270E0F39F6000130F400BC
:1002C0006630F5002C088A002A0882007708C207E9
:1002D0004E22F81E8A2827080F39F6000130F40054
:1002E0007630F5002B088A00290882007708C207BB
:1002F0004E228A28A030C1008400C20186169F15B4
:100300001F1252228612AE00BC00EF233E0880006E
:10031000840A3F088000840A40088000840A033071
:10032000C2072C308000840A20308000840A02300A
:10033000C20786169F111F1252228612B200BC00FD
:10034000EF233E088000840A3F088000840A4008AA
:100350008000840A0330C20709308000840A01301B
:10036000C2072E0835020318B729FF3A013EAD0037
:10037000BC00EF233E088000840A3F088000840A06
:1003800040088000840A0330C2072C308000840AB1
:1003900020308000840A0230C20732083502031878
:1003A000D329FF3A013EB100BC00EF233E08800094
:1003B000840A3F088000840A40088000840A0330D1
:1003C000C20709308000840A0130C2072D083102BB
:1003D000031CEE292D08D3233107F1293108D3233B
:1003E0002D07A600BC00EF233E088000840A3F08CA
:1003F0008000840A40088000840A0330C207093064
:100400008000840A0130C2073508BC00EF233E0893
:100410008000840A3F088000840A40088000840A23
:100420000330C20709308000840A0130C207373028
:10043000B60084000008BC00EF23A030420784000F
:100440003E088000840A3F088000840A400880003B
:10045000840A0330C207B60A3B30360603193A2A2B
:100460002C308000840A20308000840A0230C207C9
:100470003608192A0D308000840A0A308000840A68
:100480000230C2074E220130B32349220B1E7C22C8
:100490007A2983160C1A4A2A8312080083160C162E
:1004A000831208001F140130A2000130A100103097
:1004B000A000A00B592A0000A10B592A0000A20B92
:1004C000592A00001F151F19632A1E081F10080053
:1004D000061C682A0130A200C430A1004C30A000E4
:1004E000A00B702A0000A10B702A0000A20B702A3A
:1004F0000000061C682A080007308700B501053097
:10050000A2009430A100DC30A000A00B852A0000DE
:10051000A10B852A0000A20B852A00000708023AD9
:100520008700682286169F111F1252228612B10080
:100530000708023A87000530A2009430A100DC30A1
:10054000A000A00BA12A0000A10BA12A0000A20B71
:10055000A12A00000708023A8700682286169F1128
:100560001F1252228612B6000310360CB507070878
:10057000023A87000530A2009430A100DC30A000D0
:10058000A00BC02A0000A10BC02A0000A20BC02AA9
:1005900000000708023A8700682286169F111F1282
:1005A00052228612B2000708023A87000530A200E4
:1005B0009430A100DC30A000A00BDC2A0000A10BCD
:1005C000DC2A0000A20BDC2A00000708023A8700A0
:1005D000682286169F111F1252228612B60003103F
:1005E000360CB5070708023A87000530A2009430A0
:1005F000A100DC30A000A00BFB2A0000A10BFB2A0D
:100600000000A20BFB2A00000708023A87006822BC
:1006100086169F151F1252228612AD000708023A55
:1006200087000530A2009430A100DC30A000A00BB0
:10063000172B0000A10B172B0000A20B172B00009B
:100640000708023A8700682286169F111F1252225D
:100650008612B6000310360CB5070708023A870069
:100660000530A2009430A100DC30A000A00B362B96
:100670000000A10B362B0000A20B362B0000070850
:10068000023A8700682286169F151F125222861290
:10069000AE000708023A87000530A2009430A1009E
:1006A000DC30A000A00B522B0000A10B522B00004D
:1006B000A20B522B00000708023A87006822861618
:1006C0009F111F1252228612B6000310360CB50776
:1006D0000310B50C0708023A870035082D020318ED
:1006E000732BFF3A013EBA0035082E0203187A2B0D
:1006F000FF3A013EB6003A0236080318BA00350840
:1007000031020318852BFF3A013EB6003A02360843
:100710000318BA00350832020318902BFF3A013E45
:10072000B6003A0236080318BA0003103A0CB800B3
:10073000B7000310B70C0310370CB7003A02B9002A
:100740001030A2004330A1003C30A000A00BA62B2B
:100750000000A10BA62B0000A20BA62B0000781412
:100760008B100B160800A400A50103140630A3008B
:100770000330A2008C30A1000630A000A00BBE2BDD
:100780000000A10BBE2B0000A20BBE2B000001300D
:10079000A50DA519A500070825068700A30BB82BF2
:1007A000A40BB62B0800A6000310A60C0310A60C81
:1007B0000310A60C2608260726070800260837027D
:1007C00003180034260838020318013426083902B9
:1007D0000318023426083A0203180334033408309D
:1007E000BD00BE01BF01C00105303E020318182440
:1007F00005303F0203181B240530400203181E2455
:10080000BD030310BC0DC00D401A2124BF0D3F1ABB
:100810002424BE0D03103D08031DF42B3E08303E7A
:10082000BE003F08303EBF004008303EC000080018
:100830000330BE0708000330BF0708000330C007BD
:0E08400008004012031408003F1203140800C1
:1010000044308000840A69308000840A7230800095
:10101000840A65308000840A63308000840A74305A
:101020008000840A69308000840A6F308000840A5E
:101030006E308000840A20308000840A760882079F
:1010400028283B284E28612884287428A42894281E
:101050004E308000840A57308000840A0D308000B2
:10106000840A0A308000840A02300E30F7007408C7
:101070008A00750882004E308000840A4530800066
:10108000840A0D308000840A0A308000840A02300D
:101090000E30F70074088A00750882005330800013
:1010A000840A57308000840A0D308000840A0A3098
:1010B0008000840A02300E30F70074088A00750838
:1010C000820053308000840A45308000840A0D304D
:1010D0008000840A0A308000840A02300E30F70053
:1010E00074088A007508820045308000840A0D303B
:1010F0008000840A0A308000840A02300D30F70034
:1011000074088A007508820057308000840A0D3008
:101110008000840A0A308000840A02300D30F70013
:1011200074088A007508820053308000840A0D30EC
:101130008000840A0A308000840A02300D30F700F3
:1011400074088A00750882004E308000840A0D30D1
:101150008000840A0A308000840A02300D30F700D3
:1011600074088A007508820053308000840A703049
:101170008000840A65308000840A65308000840A1B
:1011800064308000840A20308000840A7608303E73
:101190008000840A0D308000840A0A308000840AAE
:0E11A00002300930F70074088A0075088200DA
:101200003A308000840A76088207A72ADF2AEA2A71
:10121000F52A76088207DB290D2A3F2A712A4529FB
:1012200013297729A9293A308000840A5130800097
:10123000840A77308000840A23308000840A3A30A0
:101240008000840A51308000840A6E308000840A55
:1012500023308000840A3A308000840A51308000B4
:10126000840A73308000840A23308000840A3A3074
:101270008000840A4D308000840A65308000840A32
:1012800023308000840A1030A22A3A308000840A79
:1012900051308000840A65308000840A2330800049
:1012A000840A3A308000840A51308000840A6E300B
:1012B0008000840A23308000840A3A308000840A47
:1012C00051308000840A73308000840A233080000B
:1012D000840A3A308000840A4D308000840A7730D6
:1012E0008000840A23308000840A1030A22A3A3019
:1012F0008000840A51308000840A77308000840A9C
:1013000023308000840A3A308000840A5130800003
:10131000840A65308000840A23308000840A3A30D1
:101320008000840A51308000840A73308000840A6F
:1013300023308000840A3A308000840A4D308000D7
:10134000840A6E308000840A23308000840A1030C2
:10135000A22A3A308000840A51308000840A773013
:101360008000840A23308000840A3A308000840A96
:1013700051308000840A6E308000840A233080005F
:10138000840A3A308000840A51308000840A653033
:101390008000840A23308000840A3A308000840A66
:1013A0004D308000840A73308000840A233080002E
:1013B000840A1030A22A3A308000840A513080001A
:1013C000840A65308000840A23308000840A3A3021
:1013D0008000840A51308000840A73308000840ABF
:1013E00023308000840A3A308000840A4D30800027
:1013F000840A6E308000840A23308000840A3A30E8
:101400008000840A4D308000840A77308000840A8E
:1014100023308000840A1030A22A3A308000840AE7
:1014200051308000840A77308000840A23308000A5
:10143000840A3A308000840A51308000840A733074
:101440008000840A23308000840A3A308000840AB5
:101450004D308000840A6E308000840A2330800082
:10146000840A3A308000840A4D308000840A653056
:101470008000840A23308000840A1030A22A3A3087
:101480008000840A51308000840A65308000840A1C
:1014900023308000840A3A308000840A5130800072
:1014A000840A6E308000840A23308000840A3A3037
:1014B0008000840A4D308000840A73308000840AE2
:1014C00023308000840A3A308000840A4D30800046
:1014D000840A77308000840A23308000840A103028
:1014E000A22A3A308000840A51308000840A773082
:1014F0008000840A23308000840A3A308000840A05
:1015000051308000840A6E308000840A23308000CD
:10151000840A3A308000840A4D308000840A733097
:101520008000840A23308000840A3A308000840AD4
:101530004D308000840A65308000840A23308000AA
:10154000840A1030F70074088A0075088200513050
:101550008000840A65308000840A23308000840A79
:101560003A308000840A51308000840A773080004D
:10157000840A23308000840A3A308000840A513083
:101580008000840A6E308000840A23308000840A40
:101590003A308000840A51308000840A7330800021
:1015A000840A23308000840A3A308000840A513053
:1015B0008000840A23308000840A1330FF2A5230CE
:1015C0008000840A43308000840A23308000840A2B
:1015D0000430FF2A52308000840A4D308000840A93
:1015E00023308000840A0430FF2A52308000840AAD
:1015F00053308000840A23308000840A0430F700CE
:0816000074088A0075088200DD
:02400E00B23FBF
:00000001FF
